:020000040800F2
:10000000D099002045010008D109000875060008B4
:10001000CD090008BD040008F51400080000000028
:10002000000000000000000000000000910D00082A
:1000300043050008000000005D0A0008650E000886
:100040005F0100085F0100085F0100085F01000810
:100050005F0100085F0100085F0100085F01000800
:100060005F0100085F0100085F0100085F010008F0
:100070005F0100085F0100085F0100085F010008E0
:100080005F0100085F0100085F0100085F010008D0
:10009000CD1200085F0100085F0100085F01000841
:1000A0005F0100085F0100085F0100085F010008B0
:1000B000510F00085F0100085F0100085F010008A0
:1000C0005F0100085F0100085F0100085F01000890
:1000D0005F010008E9100008F91000080911000884
:1000E0005F0100085F0100085F0100085F01000870
:1000F0005F0100085F0100085F0100085F01000860
:100100005F0100085F0100085F0100085F0100084F
:100110005F0100085F0100085F0100085F0100083F
:100120005F0100085F0100085F0100085F0100082F
:10013000DFF80CD000F04AF800480047AD1F000877
:10014000D09900200648804706480047FEE7FEE7B2
:10015000FEE7FEE7FEE7FEE7FEE7FEE7FEE7FEE777
:10016000F10E0008310100082DE9F05F054600207E
:1001700092469B4688460646814640241BE0284618
:1001800041464746224600F042F852465B46801AF6
:10019000994110D310461946224600F029F82D1A2D
:1001A00067EB01084F4622460120002100F020F8AD
:1001B00017EB00094E41201EA4F10104DFDC484684
:1001C00031462A464346BDE8F09F0000064C074DE5
:1001D00006E0E06840F0010394E807009847103417
:1001E000AC42F6D3FFF7A8FFD0200008F0200008AB
:1001F000202A04DB203A00FA02F1002070479140E7
:10020000C2F1200320FA03F3194390407047202ADB
:1002100004DB203A21FA02F00021704721FA02F3B0
:10022000D040C2F12002914008431946704721B1E5
:10023000826842F00102826003E0826822F00102DB
:100240008260704700B587B001214FF4047000F060
:1002500001FD1020ADF8180000208DF81B0006A944
:100260001D4800F06FF90020019001208DF8080072
:100270008DF809004FF460200390002004900120C5
:100280008DF8140001A9154800F04EF8052301224D
:100290000E21124800F070F80121104800F020F8FB
:1002A00001210E48FFF7C3FF0C4800F0C1F800BF62
:1002B0000A4800F02EF80028FAD1084800F0C8F8E3
:1002C00000BF064800F017F80028FAD101210348C2
:1002D00000F0B3F807B000BD001001400024014059
:1002E00021B1826842F48072826003E0826822F465
:1002F000807282607047014600208A6812F0040F05
:1003000001D0012000E0002070470146C86C80B297
:100310007047014600208A6812F0080F01D00120C2
:1003200000E000207047000030B5024600200023A6
:1003300050680F4C20400D790C6844EA0524204396
:10034000506090680B4C2040D1E902542C434D7909
:1003500044EA450420439060D06A20F470000C7C8D
:10036000641EE4B2234340EA0350D06230BD000073
:10037000FFFEF0FFFDF7F1FFF0B504460D4600204B
:100380000021092D11DDE068A5F10A0606EB4607FC
:10039000072606FA07F18843A5F10A0606EB46068A
:1003A00003FA06F10843E0600CE0206905EB45071D
:1003B000072606FA07F1884305EB450603FA06F11E
:1003C00008432061072A0FDA606B561E06EB86078A
:1003D0001F2606FA07F18843561E06EB860605FA25
:1003E00006F10843606322E00D2A0FDA206BD61F66
:1003F00006EB86071F2606FA07F18843D61F06EB91
:10040000860605FA06F10843206310E0E06AA2F1CF
:100410000D0606EB86071F2606FA07F18843A2F1B0
:100420000D0606EB860605FA06F10843E062F0BD0C
:10043000816841F008018160704721B1826842F40F
:10044000A002826003E0826822F4A002826070470A
:10045000816841F0040181607047000070B5134865
:10046000FFF753FF1249134A127821F8120011487E
:100470000078401CC0B20F490870142801DB00202E
:1004800008700025002405E0094830F814000544F0
:10049000601CC4B2142CF7DB1420B5FBF0F0064945
:1004A000088001210148FFF7C8FF70BD002401400A
:1004B00050000020010000200200002000BFFEE7E5
:1004C000014609B909487047012901D10848FAE7EE
:1004D000022901D10748F6E7032901D10020F2E7FC
:1004E000042901D10020EEE70020ECE758010020AC
:1004F00080090020A811002008B525208DF80000F3
:1005000000208DF8020001208DF80300684600F0FD
:1005100061FA26208DF8000001208DF802008DF888
:100520000300684600F056FA27208DF800000220EC
:100530008DF8020001208DF80300684600F04AFAA9
:1005400008BD70472DE9F041024600250026002035
:1005500000230024002791F803C00CF00F0591F848
:1005600003C01CF0100F03D091F802C04CEA05053F
:10057000B1F800C01CF0FF0F31D0146800202BE050
:100580004FF0010C0CFA00F3B1F800C00CEA0306BE
:100590009E4220D183004FF00F0C0CFA03F7BC43AE
:1005A00005FA03FC4CEA040491F803C0BCF1280FDF
:1005B00006D14FF0010C0CFA00FCC2F814C00AE09E
:1005C00091F803C0BCF1480F05D14FF0010C0CFAB3
:1005D00000FCC2F810C0401C0828D1D31460B1F848
:1005E00000C0BCF1FF0F34DD546800202EE000F1A4
:1005F000080C4FF0010808FA0CF3B1F800C00CEA3F
:1006000003069E4221D183004FF00F0C0CFA03F732
:10061000BC4305FA03FC4CEA040491F803C0BCF1A6
:10062000280F05D100F1080C08FA0CF8C2F8148064
:1006300091F803C0BCF1480F07D100F1080C4FF04E
:10064000010808FA0CF8C2F81080401C0828CED324
:100650005460BDE8F0810000012080F3108800BFE5
:1006600003480188002080F3108800BF08467047C7
:100670000200002000BFFEE700B585B00121052083
:1006800000F0E8FA0121880300F0E4FA4FF400706A
:10069000ADF8100018208DF8130003208DF812001B
:1006A00004A96648FFF74EFF4FF48060ADF81000D4
:1006B00004208DF8130004A96048FFF743FF4FF4AE
:1006C000E13000900020ADF80400ADF80600ADF870
:1006D0000800ADF80C000C20ADF80A006946584837
:1006E00000F07EFD012240F22551554800F053FDF7
:1006F0000121534800F019FD4021514800F00CFD44
:100700000121052000F0A6FA0121480400F092FA28
:100710000420ADF8100018208DF8130003208DF888
:10072000120004A94548FFF70DFF0820ADF810009E
:1007300004208DF8130004A94048FFF703FF04A923
:100740003E48FFF7FFFE4FF4E13000900020ADF887
:100750000400ADF80600ADF80800ADF80C000C2060
:10076000ADF80A006946374800F03AFD012240F230
:100770002551344800F00FFD0121324800F0D5FC2E
:100780004021304800F0C8FC0121082000F062FA46
:1007900010208DF8130003208DF812000420ADF80E
:1007A000100004A92848FFF7CDFE0121092000F020
:1007B00051FA0121880400F03DFA4FF48060ADF851
:1007C000100018208DF8130003208DF8120004A9E2
:1007D0001D48FFF7B7FE4FF40060ADF8100004208D
:1007E0008DF8130004A91848FFF7ACFE04A91648B9
:1007F000FFF7A8FE4FF4165000900020ADF804005B
:10080000ADF80600ADF80800ADF80C000C20ADF80E
:100810000A0069460D4800F0E3FC012240F2255130
:100820000A4800F0B8FC0121084800F07EFC402195
:10083000064800F071FC05B000BD00000008014052
:100840000038014000440040000C014000480040D6
:100850000948806810F4005F0BD10848006810F068
:10086000010F06D10648806810F4807F01D0012076
:1008700070470020FCE7000000100140080801401C
:10088000002001400948806810F4005F0BD0084840
:10089000006810F0010F06D00648806810F4807FD1
:1008A00001D1012070470020FCE70000001001404A
:1008B00008080140002001400948806810F4005FEA
:1008C0000BD00848006810F0010F06D00648806879
:1008D00010F4807F01D0012070470020FCE7000069
:1008E00000100140080801400020014009488068CC
:1008F00010F4005F0BD00848006810F0010F06D11B
:100900000648806810F4807F01D1012070470020E4
:10091000FCE70000001001400808014000200140F1
:100920000448806810F4004F01D101207047002076
:10093000FCE70000002001400448006810F0080FA8
:1009400001D1012070470020FCE70000081401409D
:100950000448806810F4804F01D1012070470020C6
:10096000FCE70000002001400448806810F4005FAC
:1009700001D1012070470020FCE700000020014069
:100980000448806810F0800F01D1012070470020DA
:10099000FCE70000002001400948806810F4005F77
:1009A0000BD10848006810F0010F06D00648806897
:1009B00010F4807F01D0012070470020FCE7000088
:1009C00000100140080801400020014000BFFEE780
:1009D0007047000070B5002100230F22C4780CB3CB
:1009E000164C246804F4E064C4F5E064210AC1F103
:1009F0000403CA40447804FA03F184781440214384
:100A000009010F4C0678A155047804F01F05012454
:100A1000AC4005786D114FF0E02606EB8505C5F872
:100A2000004109E0047804F01F050124AC40054DA5
:100A30000678761145F8264070BD00000CED00E008
:100A400000E400E080E100E002490143024A116055
:100A5000704700000000FA050CED00E07047000050
:100A600010B502A000F048FD10BD0000C7EBB5F7BF
:100A7000BDDABFAAB7A2B0E5C9CFB5C4BEABC3DC6F
:100A8000BFC9B5F7B5E7D7E8A3ACB9DBB2EC4144D1
:100A900043B2C9D1F9D6B5B5C4B1E4BBAF0D0A00B4
:100AA00010B515A000F028FD23A128A000F024FD1A
:100AB0002BA12CA000F020FD2FA132A000F01CFDE6
:100AC00001230622032134A000F016FD0122032198
:100AD00038A000F011FD3EA000F00EFD3EA000F099
:100AE0000BFD43A000F008FD48A000F005FD02A0AA
:100AF00000F002FD10BD00002A2A2A2A2A2A2A2AEA
:100B00002A2A2A2A2A2A2A2A2A2A2A2A2A2A2A2A45
:100B10002A2A2A2A2A2A2A2A2A2A2A2A2A2A2A2A35
:100B20002A2A2A2A2A2A2A2A2A2A2A2A2A2A2A2A25
:100B30002A2A2A2A2A0A0D0056342D3030365F41DF
:100B40004443B2C9BCAFC0FDB3CC00002A20C0FDF5
:100B5000B3CCC3FBB3C62020203A2025730D0A0076
:100B6000312E30002A20C0FDB3CCB0E6B1BE20202B
:100B7000203A2025730D0A00323031352D30382DC2
:100B8000333000002A20B7A2B2BCC8D5C6DA202074
:100B9000203A2025730D0A002A20B9CCBCFEBFE202
:100BA000B0E6B1BE203A2025642E25642E25640DC2
:100BB0000A0000002A20434D534953B0E6B1BE203D
:100BC000203A2025582E253032580D0A000000000A
:100BD0002A200A0D000000002A2051512020202048
:100BE0003A2031323935373434363330200D0A006B
:100BF0002A20456D61696C203A2061726D666C79BE
:100C00004071712E636F6D200D0A00002A20436F22
:100C100070797269676874207777772E61726D6674
:100C20006C792E636F6D20B0B2B8BBC0B3B5E7D797
:100C3000D30D0A0029B1064AD2690243044BDA6196
:100C400004E0034AD2698243014BDA617047000035
:100C50000010024029B1064A92690243044B9A618E
:100C600004E0034A92698243014B9A617047000095
:100C70000010024030B500210022002400232D4D39
:100C80006D6805F00C0121B1042905D0082923D194
:100C900005E0294D056022E0274D05601FE0254D48
:100CA0006D6805F47012234D6D6805F480340225DB
:100CB00005EB92421CB9214D554305600BE01D4DDB
:100CC0006D6815F4003F03D01C4D5543056002E0EC
:100CD000194D5543056002E0174D056000BF00BF88
:100CE000144D6D6805F0F0010909154D6B5C056840
:100CF000DD4045600F4D6D6805F4E061090A104D57
:100D00006B5C4568DD4085600A4D6D6805F4605197
:100D1000C90A0B4D6B5C4568DD40C560054D6D68CB
:100D200005F44041890B074D6B5CC568B5FBF3F5D5
:100D3000056130BD0010024000127A0000093D003C
:100D4000240000203400002008B501210820FFF70E
:100D500081FF03208DF8020010208DF8030004208D
:100D6000ADF8000069460248FFF7ECFB08BD000043
:100D7000000C0140704700000420014908607047E2
:100D8000100C01400420014908607047140C014018
:100D9000704710B500F002F810BD000000210020DF
:100DA0002E4A126842F480322C4B1A6000BF2B4A44
:100DB000126802F40030491C10B9B1F5A06FF6D1E9
:100DC000264A126812F4003F01D0012000E0002002
:100DD000012842D1224A126842F01002204B1A60C8
:100DE0001A46126822F003021A601A46126842F08C
:100DF00002021A60194A5268184B5A601A46526821
:100E00005A601A46526842F480625A601A46526822
:100E100022F47C125A601A46526842F4E8125A6070
:100E20001A46126842F080721A6000BF0B4A1268BC
:100E300012F0007FFAD0094A526822F00302074BF1
:100E40005A601A46526842F002025A6000BF034AD2
:100E5000526802F00C02082AF9D1704700100240D3
:100E60000020024010B500F001F810BD10B51B487D
:100E7000006840B119480068401E1849086002D156
:100E8000012017490870002408E004EB4401154ACA
:100E900002EB810001F006F8601CC4B2042CF4DB04
:100EA00011480068401C10490860084600686FF04F
:100EB0000041884202D100200B49086000F0EEFF9B
:100EC0000A480078401CC0B2084908700A2803DBB1
:100ED0000020087000F0DEFF10BD000004000020BC
:100EE00008000020780000200C00002010000020E6
:100EF00010B51348006840F0010011490860084629
:100F00004068104908400E494860084600680E498C
:100F100008400B4908600846006820F480200860FB
:100F20000846406820F4FE0048604FF41F008860C7
:100F3000FFF72FFF4FF000600449086010BD00006C
:100F4000001002400000FFF8FFFFF6FE08ED00E091
:100F500010B50221480700F058F858B1022148079F
:100F600000F044F800220221480700F05FF81B4817
:100F7000006880470421080700F047F858B10421B1
:100F8000080700F033F800220421080700F04EF8AB
:100F90001348006880470821C80600F036F858B1A9
:100FA0000821C80600F022F800220821C80600F037
:100FB0003DF80C48006880471021880600F025F8AD
:100FC00058B11021880600F011F80022102188067F
:100FD00000F02CF804480068804710BD1400002081
:100FE000180000201C00002020000020CA430282BC
:100FF000704721B1028842F00102028004E00288B9
:101000004FF6FE731A400280704730B5024600204A
:1010100000230024158A05EA0103958905EA0104E5
:1010200013B10CB1012000E0002030BD10B51AB1A1
:1010300083890B43838104E08389CC43A4B223409A
:10104000838110BD002202881D4B98420ED01D4B9B
:1010500098420BD0B0F1804F08D01B4B984205D07E
:101060001A4B984202D01A4B984204D14FF68F7314
:101070001A404B881A43174B984207D0164B984298
:1010800004D04FF6FF431A40CB881A4302808B8866
:1010900083850B8803850A4B98420BD0094B9842F5
:1010A00008D00E4B984205D00D4B984202D00D4B04
:1010B000984201D10B7A0386012383827047000096
:1010C000002C0140003401400004004000080040B2
:1010D000000C00400010004000140040004001409F
:1010E000004401400048014010B5024800F0F4F807
:1010F00010BD00005801002010B5024800F0ECF8C7
:1011000010BD00008009002010B5024800F0E4F88E
:1011100010BD0000A811002001F40072B2F5007F9C
:1011200000D100BFCA430280704721B1828942F4D6
:101130000052828104E082894DF6FF731A40828159
:10114000704770B502460024002300250020A1F559
:1011500010666A3E00D100BFC1F3421501F01F03C3
:10116000012606FA03F3012D02D19689334006E0E9
:10117000022D02D1168A334001E0968A33400C12C8
:10118000012606FA04F41688344013B10CB101208C
:1011900000E0002070BDF0B50346002400260025C5
:1011A0000020A1F510676A3F00D100BF1846C1F3C7
:1011B000421401F01F06012707FA06F5012C01D1A0
:1011C0000C3004E0022C01D1103000E014301AB1D0
:1011D00007682F43076002E00768AF430760F0BD70
:1011E0002DE9F04786B005460E460024A24600BF12
:1011F000A1460027B08900B100BF2F462C8A4CF6CB
:10120000FF700440F08804432C82AC894EF6F31042
:101210000440B08831890843718908430443AC8194
:10122000AC8A4FF6FF400440B0890443AC8201A869
:10123000FFF720FD1F48874202D1DDF810A001E032
:10124000DDF80CA0A88910F4004F08D00AEBCA0002
:1012500000EB0A1031684900B0FBF1F807E00AEB37
:10126000CA0000EB0A1031688900B0FBF1F8642075
:10127000B8FBF0F004012009642101FB1089A88962
:1012800010F4004F08D0322000EBC900B0FBF1F0A1
:1012900000F00700044308E0322000EB091064214D
:1012A000B0FBF1F000F00F0004432C8106B0BDE864
:1012B000F08700000038014001468888C0F308002C
:1012C0007047C1F308028280704700000148C0697E
:1012D000704700000010024070B5044640F22551EE
:1012E0002068FFF72EFFE0B12068FFF7E5FFC5B2E9
:1012F000E18AA0684554E08A401C80B2E082E1891E
:10130000884201DB0020E082608BE189884202DABA
:10131000608B401C6083606A10B12846616A884710
:1013200000BF40F227712068FFF70BFF08B3A08AC7
:1013300060B9002240F227712068FFF72CFF0122DC
:1013400040F226612068FFF726FF37E0638A626873
:10135000D15C2068FFF7B5FF608A401C80B26082D4
:10136000A189884201DB00206082A08A401EA08201
:1013700024E040F226612068FFF7E3FEF0B1A08A86
:1013800050B9002240F226612068FFF704FF206A6E
:10139000A0B1206A804711E0638A6268D15C20684E
:1013A000FFF78FFF608A401C80B26082A18988426B
:1013B00001DB00206082A08A401EA08270BD2DE962
:1013C000F04104460E461746002527E00CE00120B8
:1013D00000F0B4F8B4F81480002000F0AFF8A08951
:1013E000404500DD01E000BFF1E700BF705D228AEB
:1013F00061688854012000F0A1F8208A401C80B266
:101400002082A189884201DB00202082A08A401C22
:10141000A082002000F092F8681C85B2BD42D5DBA6
:10142000012240F227712068FFF7B5FEBDE8F08188
:1014300021482249086022484860224888604FF4C9
:1014400080608881C881002008824882C882088321
:1014500048838882C861086248621B481B4908604B
:101460001B4848601B4888604FF480608881C881B1
:10147000002008824882C882088348838882C86125
:1014800008624862144815490860154848601548C4
:1014900088604FF480608881C8810020088248827B
:1014A000C8820883488388820F48C8610F48086251
:1014B0000F48486270470000003801405801002082
:1014C00080010020800500200044004080090020A9
:1014D000A8090020A80D002000480040A811002005
:1014E000D0110020D0150020790D0008850D0008CE
:1014F000750D000800BFFEE70FB4054B10B503A93A
:10150000044A029800F01EF810BC5DF814FB0000BD
:101510009B1F00084C00002002E008C8121F08C1F1
:10152000002AFAD170477047002001E001C1121F64
:10153000002AFBD1704780F31088704780F3108831
:10154000704700002DE9FF4F8DB005460F4600267D
:10155000E9E1252879D100246D1CF74AA246A1466D
:1015600001212B78203B01FA03F0104202D0044302
:101570006D1CF6E728782A2810D06FF02F02287803
:10158000A0F13001092915D80AEB8A0102EB4101CB
:1015900044F0020400EB010A6D1CF0E757F804ABBD
:1015A000BAF1000F03DA44F40054CAF1000A44F01F
:1015B00002046D1C28782E2817D115F8010F44F06D
:1015C00004042A280ED06FF02F022878A0F13001F1
:1015D00009290AD809EB890102EB410100EB010955
:1015E0006D1CF2E757F8049B6D1C28786C280FD00F
:1015F00006DC4C2817D068280DD06A2814D104E0E6
:10160000742810D07A280FD10DE044F400140AE0B9
:1016100044F4801401E044F440146978814202D11A
:101620006D1C04F580146D1C95F800C0BCF16E0FA4
:101630002AD012DCBCF1630F3CD007DCBCF1000FF8
:1016400076D0BCF1580F19D1A7E018E0BCF1640FB7
:101650006FD0BCF1690F11D16BE0BCF1730F32D0C8
:1016600006DCBCF16F0F71D0BCF1700F06D196E0B3
:10167000BCF1750F6BD0BCF1780F69D06046DDE925
:101680000F129047761C4DE1C4F30250022806D099
:1016900003280AD0042801CF0AD0066042E101CF16
:1016A0004FEAE671C0E900613CE101CF068039E113
:1016B000067037E101CF8DF8000000208DF80100A1
:1016C000EB46012003E057F804BB4FF0FF30610701
:1016D0004FF0000102D40DE008F1010188464945B0
:1016E0000FDA8045F8DB1BF808100029F4D108E078
:1016F00008F1010188468142FADB1BF80810002935
:10170000F6D1DDE90F23AAEB08008146214600F05F
:101710003CF9304400EB080604E0DDE90F121BF849
:10172000010B9047B8F10108F7D221464846F4E092
:10173000FDE00A21C4F302524FF0000B0891022A87
:1017400007D001CFC117032A09D00AE030E022E018
:1017500023E0FF1D27F00707F7E8020105E000B2CC
:10176000C117042A01D140B2C117002906DA0023AB
:10177000D0EB030063EB01012D2202E0220504D52A
:101780002B228DF82420012203E0E20701D0202241
:10179000F7E790464EE00A210BE0102109E0102106
:1017A0004FF0000B44F004044FF00809089103E0E7
:1017B00008214FF0000B0891C4F30252022A04D012
:1017C00001CF0021032A06D007E0FF1D27F00707FD
:1017D000F7E8020105E080B20021042A01D1C0B27D
:1017E00000214FF00008220724D5BCF1700F29D04A
:1017F000089B83F0100353EA0B0309D150EA01025E
:1018000006D030228DF824208DF825C00222904683
:10181000089B83F0080353EA0B030BD150EA010243
:1018200001D1620706D530228DF824204FF001083F
:10183000A9F10109BCF1580F09D040A20B9208AAE6
:101840000A9211E040228DF824200122DFE740A215
:10185000F4E75B46089AFEF787FC0B9B9B5C0A9AB1
:10186000A2F101020A92137050EA0102F1D10A9822
:10187000ADEB000000F1200B600702D524F48034AA
:1018800001E04FF00109D94502DDA9EB0B0000E0B2
:10189000002000EB0B0141440890AAEB01000B90E3
:1018A000E00306D4DDE90F2321460B9800F06DF824
:1018B00006444FF000090DF1240A07E0DDE90F129C
:1018C0001AF809009047761C09F10109C145F5DBBA
:1018D000E0030CD5DDE90F2321460B9800F055F805
:1018E000064404E0DDE90F1230209047761C089989
:1018F000481E08900029F5DC08E00A980A9900784B
:10190000491C0A91DDE90F129047761CBBF10001DA
:10191000ABF1010BF1DC0B982146DDE90F2300F060
:1019200021F806446D1C287800287FF412AE11B00F
:101930003046BDE8F08F0000092801003031323315
:1019400034353637383961626364656600000000FB
:1019500030313233343536373839414243444546E5
:10196000000000002DE9F0410446002517461E4600
:10197000880405D406E039462020B04705F101056A
:10198000641EF8D52846BDE8F0812DE9F0410446F3
:10199000002590461E46C80301D5302700E02027C9
:1019A000880405D506E041463846B04705F10105F3
:1019B000641EF8D52846BDE8F081000001460429E0
:1019C00001DB0020704701EB4100084A02EB800078
:1019D0004078012808D1002001EB4102034B03EBC2
:1019E000820250700120EDE70020EBE77800002034
:1019F00070B50546304800EB051420688047002884
:101A00003ED02079052802DA0520207152E02079A5
:101A10000A2803DA2079401C20714BE0A07A38B9FB
:101A20000120A07205EB4501491CC8B200F022FA62
:101A3000208900283EDDE088218988420DDAE0888F
:101A4000401C80B2E0802189884233D105EB4501FA
:101A5000C91CC8B200F00EFA2CE0E07A002829DD9B
:101A6000207B401CC0B22073E17A884222DB002038
:101A7000207305EB4501491CC8B200F0FBF919E0E1
:101A80002079052802DD0520207110E0207918B1A9
:101A90002079401E20710AE0A07A012807D1002099
:101AA000A07205EB4501891CC8B200F0E3F90020E3
:101AB000E080207370BD0000A80000200B48807AF1
:101AC0000A4AD27A904201D1002070470748807AB2
:101AD000064A115C1046807A401CC0B290720A28F7
:101AE00001DB002090720846EFE70000480100206B
:101AF000704710B54FF44070FEF7A6FF00F0FEF8F7
:101B000000F03AF800F032F900F080F910BD000062
:101B10007FB501210846FFF78DF815480068460893
:101B20001448B6FBF0F085B24FF6FF74ADF80840EC
:101B3000ADF804500020ADF80A00ADF8060001A988
:101B40004FF08040FFF77EFA01218807FFF751FA36
:101B50001C208DF8000004208DF8010000208DF875
:101B6000020001208DF803006846FEF733FF7FBDB9
:101B70003800002040420F0010B500F055F800F08A
:101B800001F810BD08B501214FF49A70FFF762F813
:101B900003208DF8020004208DF80300C002ADF888
:101BA000000069461C48FEF7CDFC0120ADF800009E
:101BB00069461A48FEF7C6FC4FF48070ADF8000085
:101BC00069461748FEF7BEFC4FF40040ADF8000030
:101BD00069461348FEF7B6FC0820ADF800006946D8
:101BE0001048FEF7AFFC4FF48040ADF800006946A6
:101BF0000B48FEF7A7FC4FF40050ADF80000694613
:101C00000748FEF79FFC8020ADF8000069460448B5
:101C1000FEF798FC08BD00000010014000080140DC
:101C200000200140001401400021284A9172D17225
:101C30001173002018E06421254A02EB0012118183
:101C40000221234A02EB001211710021204A02EB0B
:101C5000001291721E4A02EB0012D1721C4A02EB72
:101C600000121173411CC8B20A28E4DB642218492F
:101C70000A87052281F83B206422A1F8482005222A
:101C800081F84B206422A1F85820052281F85B20BE
:101C90006422A1F86820052281F86B200D490C4AC6
:101CA00011600D4911610D4911620D4911630D4912
:101CB00011640D4911650D4911660D4911670D49F2
:101CC000C2F880100C49C2F89010704748010020FB
:101CD000A800002051080008B9080008ED08000815
:101CE000210900083909000851090008690900089C
:101CF00081090008990900088508000808B5012134
:101D00008020FEF7A7FF012000F096F8022000F0E7
:101D100093F8032000F090F8042000F08DF80320E1
:101D20008DF8020010208DF80300C001ADF800000E
:101D300069460D48FEF706FC8020ADF800006946B4
:101D40000948FEF7FFFB4FF48070ADF800006946CC
:101D50000548FEF7F7FB4FF40070ADF80000694648
:101D60000148FEF7EFFB08BD001C014070B50024E0
:101D700016E0002004EB4401204A02EB8101486098
:101D800004EB440102EB8101886004EB440102EBA7
:101D90008101487004EB440102F82100601CC4B2C8
:101DA000042CE6DB164800684FF47A72B0FBF2F1BF
:101DB000B1F1807F00D31DE021F07F40401E4FF045
:101DC000E022506150170F22002807DA13071E0E79
:101DD0000C4B00F00F052D1F5E5503E013071D0E81
:101DE000094B1D5400BF00204FF0E02290610720F6
:101DF000106100BFFFF78CFE70BD0000780000206E
:101E00003800002018ED00E000E400E010B5FFF716
:101E10000FFBFEF731FCFEF797FFFEF76DFB10BDE1
:101E200010B5002404E02046FFF7E2FD601CC4B2B8
:101E30000A2CF8DB10BD0000411EC8B220B94FF4D7
:101E400000610B4A116011E0012803D18021084A8A
:101E500011600BE0022803D1C101054A116005E0C1
:101E6000032803D14FF40071014A1160704700004C
:101E7000101C01400649C97A054A50541146C97AD6
:101E8000491CC9B2D1720A2901DB0021D172704705
:101E90004801002010B5FFF7C3FF10BD10B5FEF7D5
:101EA000DDFA10BD416851B14168491E416006D15B
:101EB000012141700178012901D181684160704799
:101EC00070B504460D46042C06DB124A12A11AA076
:101ED000FFF712FB00BFFEE70120FFF72CFB04EB2E
:101EE00044001D4901EB8000456004EB440001EB18
:101EF00080008560002004EB4401174A02EB810159
:101F00004870012004EB440102F821000020FFF793
:101F100012FB70BDAF2000082E2E5C2E2E5C557378
:101F200065725C6273705C7372635C6273705F7421
:101F3000696D65722E6300004572726F723A206699
:101F4000696C652025732C2066756E6374696F6EED
:101F500020257328290D0A00780000202DE9F04182
:101F600005460E4617462846FEF7AAFA04460CB95F
:101F7000BDE8F081E06908B1E06980473A46314642
:101F80002046FFF71CFA00BFF2E713B50446012212
:101F900001A92046FFF7E2FF1CBD70B504460D46BF
:101FA000E1B20020FFF7F1FF204670BDFFF7A1FD71
:101FB000FEF776FDFEF754FDFEF744F94FF49671F7
:101FC0000120FFF77DFF4CE0FFF792FD0120FFF7B6
:101FD000F5FC002837D0FEF73FFB05462148007886
:101FE00018B921A0FFF788FA16E01E4800780128EA
:101FF00003D11EA0FFF780FA0EE01A4800780228ED
:1020000003D11BA0FFF778FA06E0164800780328F2
:1020100002D118A0FFF770FA12480078401CC0B235
:1020200010490870042801DB0020087040F6C41035
:10203000684340F6FF71B0FBF1F6324629460EA028
:10204000FFF75AFA00BFFFF739FD0446002C08DD00
:10205000012C02D0042C02D100E001E000E000BF1E
:1020600000BFB1E7000000207C0000002F0000004E
:102070002D0000005C00000020504334BFDACFDFA9
:10208000414443B2C9D1F9D6B5203D20253564205D
:102090002C20B5E7D1B9203D202534646D560D00C4
:1020A0006273705F537461727454696D657200621B
:1020B00073705F53746172744175746F54696D65A8
:1020C00072006273705F53746F7054696D65720053
:1020D000F020000800000020500000001815000843
:1020E00040210008500000208099000028150008B9
:1020F00000000000000000000000000000000000E0
:1021000000000000000000000000000000000000CF
:1021100000000000000000000102030401020304AB
:10212000060708090204060800A24A04000000008D
:102130000000000001020304060708090000000077
:0400000508000131BD
:00000001FF
