:020000040800F2
:10000000609B0020893600081D3600081F36000856
:1000100021360008233600082536000800000000BD
:10002000000000000000000000000000273600086B
:1000300029360008000000002B360008352D000886
:10004000C9360008CD360008D1360008D53600087C
:10005000D9360008DD360008E1360008E53600082C
:10006000E9360008ED360008F1360008F5360008DC
:10007000F9360008FD36000801370008053700088A
:10008000093700080D370008113700081537000838
:100090002D3600081D3700082137000825370008D5
:1000A000293700082D370008313700083537000898
:1000B0009B2D00083D3700084137000845370008F0
:1000C000493700084D3700085137000855370008F8
:1000D00059370008C1230008C5230008C9230008B8
:1000E000693700086D370008713700087537000858
:1000F000793700087D370008813700088537000808
:10010000893700088D3700089137000895370008B7
:10011000993700089D370008A1370008A537000867
:10012000A9370008AD370008B1370008B537000817
:100130002DE9F04F80460FF21C60A5B017461D4612
:10014000D0E90023CDE91223002004910D900DF198
:10015000500A6FF0004900E0E7190020ADF80200F6
:1001600012AB4FF0FF3239460DF1020001F08BF86F
:100170000446012C04DA3878441EA441E443E40F19
:10018000BDF8020025280CBFA4F1010BA346BBF16A
:10019000010F0EDB3E4616F8011B0498C0470028ED
:1001A000049000F0D2820D98401CBBF1010B0D9021
:1001B000F1D1BDF80200252807D100200790089052
:1001C00009900A900B900C9005E00028C4D10D987E
:1001D000BDE240F0010017F8011F2029F9D02329C2
:1001E0000DD02B2904D02D2906D030290AD00CE0BF
:1001F00040F0020080B2EEE740F00400FAE740F081
:100200000800F7E740F01000F4E72A290ED129682A
:10021000296051F8042B2960002A0F9204D551421D
:1002200040F004000F9180B27F1C11E000210F917B
:1002300009E00F99494505D001EB810302EB430129
:1002400030390F917F1C3A78A2F130010A29F0D39E
:1002500039782E2903D04FF0FF310E911DE017F8A9
:10026000011F2A2907D1296829607F1C51F8042B16
:1002700029600E9211E000210E9109E00E99494586
:1002800005D001EB810302EB430130390E917F1C55
:100290003A78A2F130010A29F0D3ADF840000FF20C
:1002A000BC40397801F000F808B117F8010B8DF85F
:1002B00042009DF84200682802BF39786829622010
:1002C00005D06C2804BF38786C2803D171208DF8D4
:1002D00042007F1C14A8069017F8014BB4F12500CA
:1002E0002AD01C3800F0CB80001F022840F2C780C3
:1002F000133800F0EC80093800F0C180801E00F057
:100300005381401E00F02C81401E022840F2B7802D
:10031000001F00F02581401F00F08280401E00F089
:10032000D680401E2CD0C01E0BD0801E00F0CF8087
:10033000C01E00F0CC805AE125208DF8500001202D
:100340005EE19DF842006C282868286014D050F8BF
:10035000046B286005960E9C002C04D5304600F0F6
:10036000AFFF044606E022460021304600F0C4FFFD
:1003700000B1841B089444E150F8042B28602FE15D
:10038000296829603C2451F8040B29600021CDE93B
:10039000020114A80590DDE90201069E11B908B911
:1003A0000E9AB2B10206120FA0EB02123032D2B294
:1003B000631E3A2AA8BF2732000940EA01700909E2
:1003C0009A5508BF00281C4603D0059AA3199A42E3
:1003D000E8D3A0190590C4F13C010E980891814220
:1003E00009DA401A0A904FF6EF71BDF84000084054
:1003F000ADF8400005E1002840F103819DF8400080
:1004000000F01400102840F0FC800F98079A801A22
:100410000A9A801A441A012CC0F2F3800A94F0E080
:100420009DF8420062281AD0682806D06A280CD0AD
:100430006C281CD0712808D019E02868286050F872
:10044000041B28600D980880DBE02868286050F8BD
:10045000042B28600D98C117C2E90001D1E028687B
:10046000286050F8041B28600D980870C9E02868BF
:10047000286050F8041B28600D980860C1E02868C7
:10048000C01D20F007022A60D2E9000108322A606C
:10049000CDE90201002902D507982D210AE0BDF817
:1004A0004000810702D507982B2103E0C00705D53E
:1004B0000798202100F80A10401C079014A80799FB
:1004C00008180590214602A800F090FB99E09DF8DD
:1004D00042006C280DD0712818BF6A2809D12868FD
:1004E000C01D20F007022A60D2E9000108322A600C
:1004F00005E02968296051F8040B29600021CDE945
:1005000002019DF84200682803D1DDE9020180B2B2
:100510000BE0622803D1DDE90201C0B205E07428D6
:1005200018BF7A2804D1DDE902010021CDE90201DA
:100530009DF8400000072ED5DDE90201002908BF23
:10054000002828D044F02000782824D107983021B2
:1005500000F80A10401C411C079100F80A401AE0FC
:100560009DF84200294600F0FDF8CDE9020100297E
:1005700002DA07982D210AE0BDF84000810702D574
:1005800007982B2103E0C00705D50798202100F824
:100590000A10401C079014A80799081805902146D6
:1005A00002A800F09FFA2CE09DF842006C2809D0C8
:1005B000012007902868286050F8041B28608DF8F7
:1005C00050101EE02868286001AA50F8041B28601B
:1005D000ADF804100020ADF806004FF0FF300E908B
:1005E00002A9404600F0F5F800280AD5ADE0252024
:1005F0008DF85000012007901CB18AF801400220BC
:1006000007900F980799401A0A99401A0899401ABA
:100610000B99401A0999401A0C99441A9DF8400008
:10062000400710D420208DF80000002609E00123A7
:1006300000AA02A9404600F001FE002840F0858093
:10064000761CA642F3DB079E0DF1500B0AE01BF867
:10065000011B0498C0470028049076D00D98401CD8
:100660000D90761E002EF2D130208DF800004FF054
:10067000000B0A9E09E0012300AA02A9404600F0EF
:10068000DDFD002861D10BF1010BB345F3DB089EC2
:10069000DDF814B00AE01BF8011B0498C0470028DD
:1006A000049052D00D98401C0D90761E002EF2D171
:1006B00030208DF800004FF0000B0B9E09E0012365
:1006C00000AA02A9404600F0B9FD00283DD10BF177
:1006D000010BB345F3DB05980899099E01EB000B6C
:1006E00009E01BF8011B0498C047049068B30D98FB
:1006F000401C0D90761E002EF3D130208DF80000A6
:100700004FF0000B0C9E08E0012300AA02A940460E
:1007100000F094FDC8B90BF1010BB345F4DB9DF873
:10072000400040077FF519AD20208DF8000000261D
:1007300000E0761CA642BFF610AD012300AA02A974
:10074000404600F07BFD0028F3D04FF0FF3025B08D
:10075000BDE8F08F0000000000000000686A6C74C3
:100760007A4C0000622826D068281DD06A2808D05C
:100770006C2827D0712804D0742823D07A280CD074
:1007800020E00868C01D20F007000860D0E90023C1
:10079000083008601946104670470A680A6052F827
:1007A000040B0A60002170470A680A6052F8040BC3
:1007B0000A6000B20BE00A680A6052F8040B0A6093
:1007C00040B204E00A680A6052F8040B0A60C117DC
:1007D00070472DE9F44F0D4694B0D5F830B0BBF119
:1007E000000F804648BF6FF0004B00F0B1FD696B11
:1007F000401801900FF67420D0E90023CDE90223C0
:1008000095F83800400702D40198412806D24020CC
:100810000DF1100A01904FF0000909E000F09EFD73
:100820005FEA000AF7D14FF0FF3058E1ABEB040B61
:10083000BBF1010FC0F2CD801498018802AA0DF11E
:10084000010000F0E3FD0028044600F1D580149873
:10085000008810B9641E00F1CF80A345C0F2B980B2
:10086000686901992218914280F0A180296AC5F82F
:1008700034904042401AA969401A696A401AE969ED
:10088000401AA96AA0EB010995F83800400710D476
:1008900020208DF80000002609E0012300AA294647
:1008A000404600F0CBFC002840F0A680761C4E4568
:1008B000F3DB6E6957460BE017F8011BA868C047C9
:1008C0000028A86000F09880E86A401CE862761E64
:1008D000002EF1D130208DF8000000272E6A09E0AB
:1008E000012300AA2946404600F0A8FC002840F059
:1008F00083807F1CB742F3DBAE69EF680AE017F82C
:10090000011BA868C0470028A86075D0E86A401C91
:10091000E862761E002EF2D130208DF8000000270C
:100920006E6A08E0012300AA2946404600F086FCD2
:10093000002861D17F1CB742F4DBE868A969EE6941
:100940000F180AE017F8011BA868C0470028A86024
:1009500052D0E86A401CE862761E002EF2D13020A8
:100960008DF800000027AE6A08E0012300AA29469E
:10097000404600F063FC00283ED17F1CB742F4DB08
:1009800095F8380040070ED520208DF8000000268D
:1009900007E0012300AA2946404600F04FFC58BB5F
:1009A000761C4E45F5DB4FF00009C5F81490224641
:1009B00068690DF10101504400F036FD68692018A6
:1009C00068611498801C1490801E008800287FF4B1
:1009D0002DAF686B6969401A296A401AA969401AE3
:1009E000696A401AE969401AA96A471A95F83800F5
:1009F000400710D400240CE04FF0FF3968E0A868ED
:100A00002021C0470028A860F6D0E86A401CE862B0
:100A1000641CBC42F3DB6B6952462946404600F039
:100A20000DFC0028E8D12C6A002609E0A8683021D6
:100A3000C0470028A860DFD0E86A401CE862761C46
:100A4000A642F3DBAB69EA682946404600F0F6FBB4
:100A50000028D1D16C6A002609E0A8683021C0477F
:100A60000028A860C8D0E86A401CE862761CA6424C
:100A7000F3DBE868A969EB690A182946404600F0EB
:100A8000DDFB0028B8D1AC6A002609E0A868302157
:100A9000C0470028A860AFD0E86A401CE862761C16
:100AA000A642F3DB95F8380040070DD5002409E095
:100AB000A8682021C0470028A8609DD0E86A401C93
:100AC000E862641CBC42F3DBC5F81490C5F83490AE
:100AD00004A882451CBF504600F0E2FC484615B011
:100AE000BDE8F08F2DE9FA4E05460A462F696F2AB8
:100AF00008BF082405D041F02000782814BF0A243C
:100B000010243C26D5E90001642A18BF692A8146D1
:100B10008A4605D1002903DAD9F100096AEB4A0AAD
:100B2000BAF1000F08BFB9F1000F0CD1286B50B912
:100B3000082C36D195F83800000732D530203B26F6
:100B400087F83B002DE0E31748465146224600F067
:100B5000E7FCA4FB0023A9EB02023032D2B2A6F1DB
:100B6000010B3A2A5E4603DB9DF80030513B9A1890
:100B700081465FEA010A0BF8072008BFB9F1000FB0
:100B800003D0E868F1198842DDD3082C09D195F823
:100B90003800000705D5F05D302802D0761E3020E1
:100BA000F055C6F13C00A861F119E960296B884253
:100BB00008DA081A28624FF6EF71288F0840288754
:100BC000BDE8F38E00290ED595F8381001F0140118
:100BD000102908D1696B6A69891A2A6A891A0E1A5A
:100BE000012EA8BF2E62BDE8F38E00002DE9F24F62
:100BF00004468EB0D4E90001CDE9020104AF9DF8AE
:100C0000380040F0200BBBF1610F0AD0206B0028A8
:100C100048BF062004D408BFBBF1670F01D10120F3
:100C200020636168C1F30A5040F2FF7290421CD108
:100C3000080304BF2068002809D10320A0619DF8A3
:100C4000380061381A2836D30FF2346108E00320E7
:100C5000A0619DF8380061381A2829D30FF2186175
:100C6000E068032200F0E0FBBEE1012816DA20462E
:100C700000F0CDFC012811DB00250020BBF1610F45
:100C800020D1E168302201F8012B4A1CE2609DF876
:100C90003820612A0CBF782258220FE0626840F2A7
:100CA000FE3161F31E52451A62604FF0FF30E5E7F6
:100CB0000FF2C051D4E70FF2C451D1E70A70616955
:100CC000891C616110B90026002584E1BBF1610F28
:100CD00040F09780206BD4E900AB00284CBF212660
:100CE000461CDDE902010022002300F0B1FC36B20F
:100CF0003ABF8BF00040CDE902A0CDE902AB06F18E
:100D000001082D1F8DF810200DF1110700E0C71DFF
:100D1000B8F1010F33DBDDE902010022002300F00E
:100D2000AFFC2CD21C2102A800F0C2FCDDE90201BC
:100D300000F046FDA8F10708B8F1010F814609DB74
:100D400000F06AFD02460B46DDE9020100F07CFD81
:100D5000CDE90201F81D072105E009F00F0200F8B6
:100D6000012D4FEA2919B9F1010F01DB491EF4D514
:100D7000491E5CBF002200F8012DF9D5C7E70DF12F
:100D80001100391AB142B8BF0E4636B230000DF12B
:100D900011072FD4884206DA04A941184978082996
:100DA000A8BF0F2100DA002104AA821800E0761EF5
:100DB00012F80139401E8B42F9D00F2904D104A941
:100DC00041184A78521C4A70002802D504AF761C9C
:100DD0002D1D36B2701E0DD4C1190A783032D2B230
:100DE0003A2A03DB9DF838303A3B9A18401E01F846
:100DF0000129F2D5206B002840F1ED80701E2063A0
:100E0000E9E0DDE902010022002300F021FC3CBF03
:100E100081F00041CDE902012DB247F297506843BD
:100E20004B49DFF8309190FBF1F52DB2C5F1070A7F
:100E3000BAF1010F90461CDBDDE902675FEACA7078
:100E400007D542464B463046394600F0BDFD0646C2
:100E50000F464046494642464B464FEA6A0A00F072
:100E6000B3FDBAF1000F80468946E7D1CDE90267AC
:100E700024E0CAF1000A0026374F14E05FEACA7086
:100E800007D542464B463046394600F09DFD0646A2
:100E90000F464046494642464B4600F095FD4FEA14
:100EA0006A0A80468946BAF1000FE7D1DDE90201FE
:100EB00032463B4600F05AFECDE90201BBF1660F17
:100EC000216BDFF898900CBF05F10A000620461848
:100ED000142EA8BF132630208DF810000DF1110735
:100EE000012E3DDBDDE9020100F080FC07F1080185
:100EF00004220A23B0FBF3F303EB8307A0EB4700C4
:100F0000303001F8010C0A20B3FBF0F000EB800751
:100F1000A3EB47033033521E01F8023DE9D1083EEE
:100F2000012E01F10807DBDBDDE9020100F05EFCC8
:100F300000F07CFC02460B46DDE9020100F084FC77
:100F400000224B4600F040FDCDE90201CAE700BF98
:100F5000A0860100000024400000F03F84D79741A4
:100F60000DF11100381A0DF1110702E0401E6D1E3F
:100F70007F1C39783029F9D0BBF1660F02D12DB230
:100F8000691C04E0BBF1650F0CBF01210021226B3D
:100F90008E1836B2B042B8BF064636B231001AD407
:100FA000814204DAC85D3528A8BF392000DA302034
:100FB000CA19521E00E0761E12F80139491E8342FA
:100FC000F9D0392802D1C85D401CC855002902D586
:100FD0007F1E761C6D1C2DB29DF83810009533B223
:100FE0003A46204600F003F80FB0BDE8F08F2DE937
:100FF000F04786B006468A4690461D4600F0FFFE42
:10100000012D406A376B90F8009002DA01250FF24B
:1010100074284AF02000BDF93840662808BF641CD7
:1010200012D0672876D114F1040F79DBBC4277DA4D
:1010300096F83800641C000702D4BD42B8BF2F46A2
:1010400024B23F1B48BF002724B2F068B169012CCD
:1010500021DA4A1C30230B54012F03DA96F838109A
:10106000090702D502F80090521CE742B8BF7C4243
:1010700024B2E7196142AF42B2617162B8BF3D4626
:10108000B3692DB2F5612A464146181800F0CCF933
:10109000781BB062BBE00818A54216DA2A46414622
:1010A00000F0C2F9B1696918601B012FB16170626B
:1010B00003DA96F83800000705D5F06801F80090CB
:1010C000F069401CF061B762A1E02246414600F0A1
:1010D000ABF9B06920182D1B012F03DA96F83810F0
:1010E000090703D5F16800F80190401CB0612DB2EA
:1010F000AF42B8BF3D46F068B3692DB22A4604EB53
:101100000801181800F090F9B0692818B061781B30
:1011100070627CE0BAF1610F14D14FF0700A16E0F2
:10112000BD4204DA96F83810090758BF2F467F1ED3
:1011300048BF0027BAF1670F14BF4FF0450A4FF0C0
:10114000650A04E0BAF1410F08BF4FF0500AB169D7
:10115000F06818F8013B0B544A1C012F05DA96F889
:101160003810090758BFB26115D502F80090531C1A
:10117000012FB3610FDB6D1E2DB2AF42B8BF3D46EC
:101180002DB22A464146181800F04EF9B0692818C9
:10119000B061781B7062F068B1690918200081F8AD
:1011A00000A004D42B20487001F1020804E02D2295
:1011B0004A7001F102086442002502AF08E00A22E9
:1011C00000A800F035FE019807F8010B6D1C009C8B
:1011D00021B20129F3DA022D06DA4AF0200065284F
:1011E00004BF302008F8010B4DB9302008F8010B7E
:1011F00007E06D1E02A8285C303008F8010B012DB5
:10120000F7DAF068B1690818A8EB0000F06196F809
:10121000380000F0140010280DD17069B169081869
:10122000716A0818F1690818B16A0818716B884268
:10123000BCBF081A306206B0BDE8F087F8B50446B6
:101240000D4616461F46002004E0E86A401CE8628E
:101250007F1E002047B116F8011BA868A047002890
:10126000A860F2D14FF0FF30F2BD00000000000096
:10127000000000006E616E004E414E00696E660017
:10128000494E46003000F8B504460D4616461F4646
:1012900000F0D6FD3B4632462946204601B0BDE867
:1012A000F04000F0E4BD00000278C9B28A421AB1F1
:1012B0001CBF10F8012FF9E718BF0020704700008D
:1012C00000F10103810704D010F8011B89B18107E7
:1012D000FAD10268B2F10131914311F0803F04BFAD
:1012E00050F8042FF6E710F8011B11B110F8011B9C
:1012F000FBE7C01A70470000C9B2830706D0521E30
:1013000022D310F8013B9942F7D11FE0083A13D3DA
:1013100002F1040241EA012141EA014150F8043B93
:10132000121F21BF4B40A3F1013C2CEA030C1CF01F
:10133000803FF3D0C9B2001F083210F8013B521EA3
:1013400028BF91EA030FF8D818BF0120401E70474C
:1013500080B500F075FD012002BD000070B50546A6
:1013600005F10F00C408C046C046E400A54232D2D1
:10137000082C04D2082402E0083000F091F822483A
:10138000026811000CD1011D0A6802B31368A34260
:1013900038BF111DF8D310E01D68A5420DD2191DEC
:1013A0000B68002BF8D11268011D00E0191D0B68B5
:1013B00093420CD01D68A542F8D361B10D682A682C
:1013C000A2F10803A3420AD26A680A600FE000F0A3
:1013D00071FD0028D0D1C046C046002070BD631901
:1013E0000B60121B6E685E600B681A602C600968E7
:1013F00000291DBF4A68002A091D00210160C0465E
:10140000C04605F1080070BD541B002070B50446AD
:101410000D46164600F014FD324629462046BDE82A
:10142000704000F017BD000062B38B0708D0521E59
:1014300011F8013B00F8013B00F024808B07F6D146
:10144000830740F0208000BF103A07D330B4B1E8E2
:101450003810103AA0E83810F9D230BC530724BF36
:10146000B1E80810A0E8081044BF51F8043B40F868
:10147000043BD20724BF31F8022B20F8022B44BFD3
:101480000B7803707047083A07D3B1E80810083AA0
:1014900040F8043B40F804CBF7D25307E4E70000E0
:1014A00000B9704738B5A0F108042068082833D384
:1014B00010F0070F30D1C046C0461848416809B146
:1014C0008C4203D26160446017E019464B680BB14F
:1014D000A342FAD30B685D18AC421BD3A54204D1DA
:1014E0002268D2180A600C4607E04A681AB12368DD
:1014F0001B199A420ED362604C60616851B1226838
:1015000013198B4206D100230360086880182060FD
:1015100048686060C046C04631BD0000541B0020D2
:101520001B4213D1094236D12AB18446B0FBF2F0F6
:1015300002FB10C2704700F0D3BCFCD30022002392
:1015400070470B000200002100207047904271EBB1
:10155000030CF6D370B5B1FA81F4B3FA83F52C1B02
:10156000A340C4F1200532FA05F63343A2405FF0F0
:101570000046E64002E05B085FEA3202841A71EB43
:10158000030524BF204629467641F4D302000B0010
:101590003000002170BD012ACFD970B5140C20D0C5
:1015A000B1FA81F4B2FA82F5C4F120046419B4F1FD
:1015B0002006D6D3B2405FF00044F440002502E09C
:1015C00052085FEA3303C61A71EB020E24BF30469D
:1015D000714664416D41F3D302000B0020002900E5
:1015E00070BD0C46B1FBF2F102FB11452D0445EA3A
:1015F0001045B5FBF2F402FB145580B240EA0545F4
:10160000B5FBF2F002FB105240EA044070BD30B46A
:10161000436803F0004201211B031B0B436004BF1E
:101620000368002B08D10DE00368DD0F45EA440490
:1016300044605B000360491E4468E302F4D5230361
:101640001B0B436043681A434260084630BC704736
:101650004FF4001C1CEB410F94BF1CEB430F09E03F
:1016600041EA030C50EA4C0C52EA0C0C03D29942AA
:1016700008BF9042704714BF8B42824270470000FF
:101680004FF4001C1CEB410F94BF1CEB430F09E00F
:1016900041EA030C50EA4C0C52EA0C0C03D28B4288
:1016A00008BF8242704714BF9942904270470000C1
:1016B00070B504460D466068C0F30A5040F2FF71F1
:1016C000884207D16068000304BF2068002817D053
:1016D000022070BD20B92046FFF799FF012868DA83
:1016E000012D0FDB40F2FF71091A8D420AD36068A9
:1016F000002847BF0020304900203049C4E90001DC
:10170000012070BD4142A942616806DA6FF31E51A3
:10171000401941EA0050606042E0401E636845198C
:10172000012205F1350062F31F53352801F0004115
:10173000636003D361600020206070BD002215F15A
:101740001F0F04DA226823600020203560606842A1
:1017500014D0521E25689241C0F12003D2439D400F
:1017600045EAD272256825FA00F6656805FA03F3A2
:1017700033432360636823FA00F5656060680843BB
:10178000B2F1004F606003D80DD12078C0070AD5B0
:101790002068401C2060206828B96068401C606098
:1017A0004FF0FF3070BD6068884204BF2068002899
:1017B000F6D1002070BD00BF0000F0FF0000F07FF8
:1017C000F446400D40EAC120490006D200F014F86A
:1017D000004248BF6FF00040604700F00DF84FF046
:1017E000004188428CBF084640426047400D40EAB5
:1017F000C120490080F00D8040F00040490DA1F566
:101800008061491C05D4D1F11F0154BFC840C017E5
:1018100070474FF000007047010040F10980F44626
:10182000404200F005F851F000416047010000BF60
:1018300009D0B0FA80F18840C91CC1F5846109055E
:1018400001EBD02140057047F0B44FF0004591EA1C
:10185000030F44BF6B4000F045BB00BF841A71EB1F
:10186000030604D26E40001BB141121973414FF4BC
:10187000001C1CEB410F34BF7CEB430684E00C0DD5
:10188000A4EB1356362E7DDC012E43DC45EAC32340
:1018900043EA525312BFD20292025B08240545EA82
:1018A000C12141EA5051D2EBC020994125D407D142
:1018B000B0FA80F610FA06F164D00020203608E075
:1018C000B1FA81F6B140C6F1200220FA02F21143CA
:1018D000B0404FEAF474B4EB465434F001064FEADA
:1018E00074040AD8D6F50016760D04F00044F040D2
:1018F00061FA06F25040F1404840C00A40EA4150C7
:1019000021F0004128BF5FEA500550F1000044EB90
:10191000D12137E045EAC323DB0A45EAC121C90AE0
:10192000B6F120050EDD42EA0242120CC5F1200696
:1019300003FA06F6EB4042EA06056D42984161F172
:1019400000010DE062FA06F5F240554063FA06FC2C
:1019500082EA0C02F3405A406D42904161EB030170
:1019600011F4801F05D1641E620502D06D00404154
:10197000494121F48011430875F1004350F1000002
:1019800041EB0451F0BC70471CEB410F15D223F022
:10199000004352EA43060BD04FEA4C0CBCEB410F1C
:1019A00004D80C0D661E342EB7DDEBE7801A994182
:1019B00050EA410608BF0021E4E708BF1CEB430FD3
:1019C00028BF6FF00001DDE7B0B581EA030C0CF031
:1019D000004C40F2FF7515EA11541DBF15EA13576C
:1019E000AC42AF4239E0E41923EA455343F4801393
:1019F000C90241F0004141EA505EC7021100A7FB55
:101A0000020200284FF00000EEFB01204FF0000121
:101A1000E3FB072118BF42F00102401800214941B1
:101A2000E3FB0E01A4F580640F0302D25200404193
:101A3000494154F101046CDD470872F1004250F154
:101A4000000051EB0451A1F580115CBF41EA0C018B
:101A5000B0BD4CEA05510020B0BD05EA1357AC42B9
:101A600014BFAF4241E050EA410E1CBF52EA430EA0
:101A700002E061460020B0BD24423C441BD15FEA35
:101A8000070EF6D0090302BF01460020AEF1140E86
:101A9000B1FA81F7AEEB070401FA07FE0C37C7F184
:101AA000200100FA07F7C8404EEA000E23EA45532A
:101AB00043F48013A2E733F00043B3FA83F704BF83
:101AC000B2FA82FE77440B3FE41BB7F1200E2FBF22
:101AD00002FA0EF3BB40C7F1200E22FA0EFE38BF09
:101AE00043EA0E03BA40641C82E750EA410E14BF79
:101AF00052EA430E6FF000014FF4001717EB430F4B
:101B00008ABF194617EB410FB5E74CEA0551002093
:101B1000B0BDD4F10104B4F120070FDAC4F12007FD
:101B2000520828BF42F0010210FA07F501FA07F740
:101B3000E1BF2A43E0403843E1400FE0352C98DC18
:101B4000C7F1200452EA400220FA07F218BF42F01F
:101B5000010231FA07F0A1400A43002172F100426C
:101B600050F1000051EB0C01B0BD00002DE9F04137
:101B700040F2FF7581EA030C0CF0004C15EA115499
:101B80001DBF15EA1357AC42AF42E9E0BC41C1F3B7
:101B90001301C3F31303801A994143F4801304D251
:101BA000641E4000494180185941C90241EA505120
:101BB000B1FBF3F603FB1611A2FB0675D7EBC020B1
:101BC000A94102D2761E80185941C90241EA5051FA
:101BD000B1FBF3FE03FB1E11A2FB0E75D7EBC02079
:101BE000A94103D2AEF1010E80185941890241EAA0
:101BF0009051760546EA8E2EB1FBF3F603FB1611E3
:101C0000A2FB0675D7EB8020A94102D2761E801870
:101C10005941C90241EA50514EEA060EB1FBF3F6B2
:101C200003FB1611A2FB0675D7EBC020A94102D217
:101C3000761E80185941C90241EA5051B1FBF3F7B1
:101C400003FB1711A2FB0735D3EBC020A94167F1B5
:101C500000070CBF004247F0010766F3D5274FEAA3
:101C60001E31B80814F5806414DDBD0775F100421B
:101C700050EB0E5051EB045111F5801F5CBF41EA4F
:101C80000C01BDE8F0814CF07F6141F0E0410020A3
:101C9000BDE8F081BD076D0840EA0E5041F48011A7
:101CA000D4F10104B4F120060ADAC4F120060200DE
:101CB000E04001FA06F3E1401843B24015430EE05C
:101CC000342C14DCC6F1200445EA40056D0820FAE6
:101CD00006F2154321FA06F0A1400D43002175F1EB
:101CE000004250F1000051EB0C01BDE8F0810020F2
:101CF0005FEA0C01BDE8F081CFB992185B41B3FAFD
:101D000083F704BFB2FA82F6BF190B3FB7F1200682
:101D10002FBF02FA06F3BB40C7F1200622FA06F6EF
:101D200038BF3343BA401CB1E419641E2FE77F4229
:101D300031F00041B1FA81F404BFB0FA80F6A41981
:101D40000B3CB4F120062FBF00FA06F1A140C4F10C
:101D5000200620FA06F638BF3143A0403C1B16E7A8
:101D6000AC421ABF05EA1357AF4214E050EA4106ED
:101D70001CBF52EA4306BFE750EA410730466146BE
:101D80001CBF41EA0551BDE8F08152EA430C08BF8F
:101D9000C143BDE8F08100204FF4001616EB410F5F
:101DA00098BF16EB430F08BF16EB410F24BFC1438A
:101DB00005E016EB430F0CBF61464CEA0551BDE848
:101DC000F081000080B5134800F0F6F80FF24C02E5
:101DD0000FF244010160426241600FF244028263EB
:101DE00081600FF24402C1600161416181618162E1
:101DF000C16201634163C2630164416401BD10B506
:101E0000044800F0D9F80446206808B9FFF7DAFF63
:101E1000204610BD00000020000000002E00000041
:101E200066616C73650000007472756500000000E7
:101E300091FBF2F303FB1211C0E90031704700007F
:101E400080B5DFF80C0000F0B7F8806902BD000033
:101E50009000002030B430B90FF24800D0E90045BE
:101E6000C2E900451BE00170012030BC704730B46E
:101E700031B90FF23800D0E90045C3E900450EE062
:101E80001AB930BC6FF00100704708B10A780280BF
:101E90000978481E804130BCC043C00F7047002005
:101EA00030BC70470000000000000000000000008F
:101EB000000000000749086808B100207047064884
:101EC000C008C00008600549C908C900091A0160B6
:101ED000704700BF5C1B0020679B0020609F0020B4
:101EE00070470000841A71EB030603D2001BB14156
:101EF000121973414FF4001C1CEB410F34BF7CEBF3
:101F0000430443E00C0DA4EB1356352E50DC45EA98
:101F1000C323DB0A45EAC121C912B6F120050DDD54
:101F200063FA05F6EB4086EA0305124218BF45F056
:101F30000105C01851F100010CD213E062FA06F558
:101F4000F2405540F3415A40B340F3405A408018A4
:101F5000594107D349085FEA30005FEA350528BFD9
:101F600045F0010501F58011420875F1004250F17C
:101F7000000041EB0451F0BC4FF4001C1CEB410F7E
:101F800038BF70470020090D090570471CEB410F51
:101F900010D252EA43060BD0BCEB410F05D80C0D12
:101FA000AB43661E342EB5DD02E0AB4380185941C9
:101FB000F0BC7047F0BC70477047000080B500F07F
:101FC00090F800F0D5F800F072F825208DF80000A8
:101FD000002000F012F826208DF8000001208DF876
:101FE00002008DF8030000A800F017FA27208DF8F2
:101FF0000000022000F001F801BD8DF80200012070
:102000008DF8030000A800F008BA10B9DFF8BC038F
:102010007047012802D1DFF8B8037047022802D1C7
:10202000DFF8B003704700207047F8B50C4615463E
:10203000FFF7EBFF060033D0F069010018BF8047BF
:1020400000200021012221E082F31088B38AADF83C
:10205000003081F31088BDF80030B789BB42F3D25D
:10206000035D7768B6F810C00CF8073082F310886B
:10207000338A5B1C33829BB2B789BB4228BF318253
:10208000B38A5B1CB38281F31088401C80B2A842E3
:10209000DAD33068BDE8F84040F2277100F04CBA5E
:1020A000F1BD02B5012200A9FFF7BFFF01BD80B558
:1020B0000121082000F0BDFA03208DF8020000A9DC
:1020C00010208DF803000420ADF80000C34800F094
:1020D000CFFA01BDC34900E0C3490420086070473E
:1020E0007047BA48C149BC4B0160002200F1280189
:1020F000416000F5856181604FF480618181C1811B
:1021000002824282C282028342838282C26102626E
:102110004262AF4A136000F628035360918100F6D3
:1021200028439360D181002313825382D382138387
:1021300053839382D36113625362A64AA84B136000
:10214000918100F5805300F5A0502830906028332D
:102150005360D181002010825082D082108350833E
:102160009082A348D061A3481062A3485062704790
:102170002DE9F04186B00121052000F05AFA012135
:102180004FF4804000F055FA4FF40070ADF80000B5
:1021900000F0A3F800A9994CDFF85082204600F027
:1021A00067FA04208DF803004FF48065ADF8005005
:1021B00000F09AF84FF4E136019600200290ADF855
:1021C0000C00ADF8100001A90C20ADF80E0040F293
:1021D0002557404600F058F901223946404600F0A4
:1021E000ABF90121404600F09DF94021404600F046
:1021F000C3F90121052000F01CFA01214FF4003041
:1022000000F020FA0420ADF8000000A900F065F805
:10221000204600F02DFA082000F056F800F064F88F
:10222000019600F065F86C4C204600F02DF900F0A6
:1022300046F80121204600F075F94021204600F0C3
:102240009BF90121082000F0F4F9102000F046F875
:102250000420ADF8000000A9604C204600F008FA08
:102260000121092000F0E5F901214FF4802000F060
:10227000E9F918208DF80300ADF8005003208DF81F
:10228000020000F031F84FF4006000F01DF800F09B
:102290002BF84FF41650019000F02AF8504C2046CD
:1022A00000F0F2F800F00BF80121204600F03AF9B6
:1022B0004021204600F060F906B0BDE8F08101221F
:1022C0003946204600F038B9ADF8000000A90420D6
:1022D0008DF80300204600F0CBB918208DF80300DC
:1022E00003208DF80200704700A9204600F0C0B915
:1022F00000200290ADF80C00ADF810000C20ADF8F5
:102300000E0001A9704770B5044640F225512068BF
:1023100000F033F9C8B1206800F02AF9A168E28A18
:102320005054E18A491CE18289B2E289914224BF7A
:102330000021E182618B914202D2618B491C618351
:10234000616A0A001CBFC0B2884740F22776206845
:10235000314600F012F940F2266568B12068A18A82
:10236000E1B90022314600F0E7F820682946BDE8CF
:102370007040012200F0E0B82068294600F0FDF826
:10238000E8B12068A18A49B90022294600F0D4F8B2
:10239000206A010013D0BDE8704000476168628A7E
:1023A000515C00F0E1F8608A401C608280B2A18933
:1023B000884224BF00206082A08A401EA08270BD97
:1023C0000248A0E702489EE702489CE7640100201B
:1023D000D81A0020001B002000440040000C0140DF
:1023E00000480040100C0140140C0140003801402E
:1023F000D5200008D9200008E1200008000801408D
:1024000010B50446E1B20020FFF74BFE204610BD98
:1024100018490843184908607047F0B50378C47834
:102420001A460121ECB1144B1B68447803F4E063B5
:10243000C3F5E0631B0AC3F10405AC4085780F26A1
:1024400026FA03F707EA050323430C4C1B01135537
:10245000007800F01F029140094A400942F820101C
:10246000F0BD03F01F0001FA00F00649520941F8DF
:102470002200F0BD0000FA050CED00E000E400E0F1
:1024800000E100E080E100E030B5044685B00D4693
:10249000208A4CF6FF710840E988084320824EF6F6
:1024A000F311A0890840A98808432989084369894C
:1024B0000843A0814FF6FF41A08A0840A98908433C
:1024C000A08200A800F07AF81548296884420CBF61
:1024D0000398029819225043A28912044CBF490064
:1024E0008900B0FBF1F16420B1FBF0F000010209BA
:1024F000642303FB1211A289120406D5C9003231EC
:10250000B1FBF3F101F0070105E009013231B1FB44
:10251000F3F101F00F010843208105B030BD000048
:10252000003801400029818912BF41F400514DF665
:10253000FF7211408181704710B50B065B0F0124BB
:1025400001F01F01012B04FA01F108BF0C3003D088
:10255000022B0CBF10301430002A026814BF114344
:1025600022EA0101016010BDC905C90D81807047D3
:102570008088C005C00D70471DE030B50A461306BF
:1025800000215B0F012402F01F05012B04FA05F561
:1025900008BF838903D0022B0CBF038A838A120AE7
:1025A000008804FA02F22B401040002B1CBF0028C8
:1025B0000121084630BDC9430180704730B5264926
:1025C000264B0A6802F00C02082A0ED10A680C6831
:1025D000234DC2F38342921C5543E40302D50C6899
:1025E000A40301D52B4600E0534303601D4A0B684A
:1025F0000468C3F303139B5C24FA03F545600B687E
:102600004468C3F302239B5C24FA03F585600B68DE
:102610004468C3F3C2239B5C24FA03F5C5600968D0
:10262000C368C1F381318918097CB3FBF1F1016101
:1026300030BD0D4A0029116814BF084321EA00008B
:1026400010607047094A0029116814BF084321EA45
:1026500000001060704700000410024000127A0071
:1026600000093D003C010020181002401C100240EF
:102670002DE9F041CC78002204F00F03E40644BFBA
:102680008C7823430C8801250F26E7B20FB3D0F8CE
:1026900000C005FA02F707EA0408B84514D14FEA6A
:1026A000820E06FA0EF82CEA080C03FA0EFE4EEA29
:1026B0000C0C91F803E0BEF1280F08BF476103D06E
:1026C000BEF1480F08BF0761521C082AE1D3C0F8C9
:1026D00000C0FF2C25DDD0F804C0002202F108075D
:1026E00005FA07F707EA0408B84515D14FEA820E44
:1026F00006FA0EF82CEA080C03FA0EFE4EEA0C0C51
:1027000091F803E0BEF1280F08BF476191F803E09C
:10271000BEF1480F08BF0761521C082ADED3C0F87B
:1027200004C0BDE8F08100002DE9F04786B000F05C
:10273000BFF90FF24424204600F0CEF90FF28C21AD
:102740000FF2742000F0C8F96CA10FF2942000F091
:10275000C3F90FF2B4210FF29C2000F0BDF9012360
:10276000062203210FF2AC2000F0B6F9012203216A
:102770000FF2BC2000F0B0F90FF2D02000F0ACF95D
:102780000FF2D02000F0A8F90FF2E02000F0A4F939
:102790000FF2F42000F0A0F9204600F09DF90FF2AE
:1027A000A4105B4C00F098F901214FF40470FFF77E
:1027B00040FF1020ADF8000000A900208DF80300B4
:1027C0005448FFF755FF0020019001A901208DF822
:1027D00008008DF809004FF4602003900020049059
:1027E00001208DF81400204600F088F9052301220D
:1027F0000E21204600F0CDF90121204600F0A5F978
:102800000121204600F098F9204600F0A7F9204663
:1028100000F0A9F90028FAD1204600F0A7F92046D7
:1028200000F0A9F90028FAD10121204600F0A8F90A
:102830004FF49671012000F04CFA0FF2E009364C8B
:102840002FA530A60FF2C00A0FF2C00818E0032827
:1028500002D1284600F040F92078401CC0B204287C
:10286000A8BF0020207040F6FF7140F6C4107843E6
:10287000B0FBF1F23946484600F02EF900F007FCB3
:1028800000F029F9012000F046FA0028F6D00120D6
:1028900080F310886788002080F31088207808B9BA
:1028A0004046D7E7012808BF5046D3D00228CED1F2
:1028B0003046CFE710B5164C204600F08AF916498D
:1028C0004A7801EB42039880501CC0B21428A8BF7C
:1028D000002048700022002001EB4203521C9B881C
:1028E0001818142AF8DB1422B0FBF2F048800121FA
:1028F0002046BDE8104000F043B90000312E300002
:102900005C0000002D0000002F0000007C00000093
:102910000024014000100140AC1A00202050433434
:10292000BFDACFDF414443B2C9D1F9D6B5203D204B
:10293000253564202C20B5E7D1B9203D202534640D
:102940006D560D00C7EBB5F7BDDABFAAB7A2B0E56B
:10295000C9CFB5C4BEABC3DCBFC9B5F7B5E7D7E8CF
:10296000A3ACB9DBB2EC414443B2C9D1F9D6B5B599
:10297000C4B1E4BBAF0D0A002A2A2A2A2A2A2A2A2D
:102980002A2A2A2A2A2A2A2A2A2A2A2A2A2A2A2AA7
:102990002A2A2A2A2A2A2A2A2A2A2A2A2A2A2A2A97
:1029A0002A2A2A2A2A2A2A2A2A2A2A2A2A2A2A2A87
:1029B0002A2A2A2A2A0A0D002A20C0FDB3CCC3FBEA
:1029C000B3C62020203A2025730D0A0056342D303E
:1029D00030365F414443B2C9BCAFC0FDB3CC000048
:1029E0002A20C0FDB3CCB0E6B1BE2020203A20257D
:1029F000730D0A002A20B7A2B2BCC8D5C6DA2020BF
:102A0000203A2025730D0A00323031352D30382D13
:102A1000333000002A20B9CCBCFEBFE2B0E6B1BE24
:102A2000203A2025642E25642E25640D0A0000001E
:102A30002A20434D534953B0E6B1BE20203A202509
:102A4000582E253032580D0A000000002A200A0DA9
:102A5000000000002A205151202020203A2031324D
:102A60003935373434363330200D0A002A20456D8D
:102A700061696C203A2061726D666C794071712ECB
:102A8000636F6D200D0A00002A20436F7079726910
:102A9000676874207777772E61726D666C792E6324
:102AA0006F6D20B0B2B8BBC0B3B5E7D7D30D0A0085
:102AB00080B54FF44070FFF7ABFC00F0B3FB00F0C3
:102AC00099FA00F0ABF8BDE80140FFF777BA00F0E3
:102AD0009FBBFFF7EFBE70470EB400B582B003A9ED
:102AE0000091024600AB0121034878440A30FDF70B
:102AF0001FFB06BC5DF810FB6F0B00004268454BE6
:102B00001A400B681A430B7942EA03224260424B97
:102B100082681A40CB681A438B681A434B7942EAA1
:102B200043028260C26A097C491E22F47002C9B263
:102B300042EA0151C16270470029816812BF41F029
:102B4000010149084900816070470029816814BF6C
:102B500041F4807121F4807181607047816841F097
:102B60000801816070478068C00806E0816841F014
:102B70000401816070478068800800F001007047A0
:102B80000029816814BF41F4A00121F4A0018160F3
:102B9000704770B500F025F81F24072A07DA521E87
:102BA00002EB8202436B00F017F8416370BD0D2AFF
:102BB00007DAD21F02EB8202036B00F00DF801630B
:102BC00070BD0D3A02EB8202C36A00F005F8C162E3
:102BD00070BDC06C80B270479440A34391401943CC
:102BE000704707240A290BDBA1F10A0505EB45050F
:102BF000C668AC4026EA0404AB402343C360704778
:102C000001EB41050669AC4026EA0404AB402343CE
:102C100003617047FFFEF0FFFDF7F1FF00207B49E5
:102C20000C2202FB001100224A608A60401C4A709C
:102C300004280A70F3DB764800684FF47A71B0FB21
:102C4000F1F0B0F1807F0BD200027249724A000AA3
:102C5000401E4860F0201070002088600720086047
:102C600069E010B56D4C606828B16068401E606016
:102C700004BF01202070002064490C2202FB0012D6
:102C8000536853B153685B1E536001BF01235370F7
:102C90001378012B04BF93685360401C0428ECDBBD
:102CA000A068401CA0606FF00041A068884204BF8B
:102CB0000020A060FFF70DFF6078401C6070C0B27C
:102CC0000A2805DB00206070BDE81040FFF7FFBE5A
:102CD00010BD80B5042804DB0FF22C2200F00AF8A6
:102CE000FEE700F00DF8417001210170002080F333
:102CF000108801BD0FF26C110FF24810FFF7ECBE07
:102D0000012282F31088414A0C2303FB002041601A
:102D100081600021704704280ADA3C490C2202FB3A
:102D200000104178012903D1002141700120704732
:102D30000020704795E700B585B001210120FFF71D
:102D400081FC4FF6FF70ADF8080035493048006847
:102D50004008B0FBF1F0ADF8040001A90020ADF887
:102D60000A00ADF806004FF0804000F0A9FA0121FA
:102D70004FF0804000F0E8FA1C208DF8000004209D
:102D80008DF8010000208DF8020001208DF803006D
:102D900000A8FFF742FB05B000BD10B5022100F00E
:102DA00047F8204C38B100F047F80022022100F02B
:102DB0003BF820688047042100F03AF840B1042134
:102DC00000F03BF80022042100F02EF860688047F4
:102DD000082100F02DF840B1082100F02EF8002263
:102DE000082100F021F8A0688047102100F020F8A9
:102DF00050B1102100F021F80022102100F014F849
:102E0000E068BDE81040004710BD00007C1A0020BB
:102E10006001002010E000E023ED00E0481B0020EE
:102E200040420F00381B00204FF0804000F096BA5F
:102E30004FF0804000F09ABA02214FF0804000F03D
:102E40009FBA00004572726F723A2066696C652005
:102E500025732C2066756E6374696F6E2025732848
:102E6000290D0A00463A5C53544D33325C61726D51
:102E7000666C795C5634C5E4CCD7D7CAC1CF5C3018
:102E8000322EC5E4CCD7C0FDB3CC5C30322E4350DB
:102E900055C4DAB2BFD7CAD4B4C0FDB3CCA3A831ED
:102EA00030B8F6C0FDD7D3A3A95C56342D303037E7
:102EB0005F414443B2C9BCAFBACDC8EDBCFEC2CB82
:102EC000B2A8C0FDB3CCA3A856312E30A3A95C563E
:102ED000342D3030375F414443B2C9BCAFBACDC89E
:102EE000EDBCFEC2CBB2A8C0FDB3CC5C557365721D
:102EF0005C6273705C7372635C6273705F74696D43
:102F000065722E63000000006273705F537461721B
:102F1000744175746F54696D65720000A84800684B
:102F2000800409D4A7480068C00705D4A6480068F3
:102F3000C00501D50120704700207047A0480068F7
:102F4000800409D59F480068C00705D59E480068E1
:102F5000C00501D5012070470020704798480068DF
:102F6000800409D597480068C00705D496480068D2
:102F7000C00501D4012070470020704790480068C8
:102F8000800409D48F480068C00705D58E480068C2
:102F9000C00501D5012070470020704788480068AF
:102FA000800409D587480068C00705D586480068B1
:102FB000C00501D401207047002070478248006896
:102FC00000F4004003E08148006800F00800401E63
:102FD0008041C00F70477C48006800F48040F6E7ED
:102FE0007948006800F40050F1E77748006800F085
:102FF0008000ECE738B500F05AF801214FF49A70E0
:10300000FFF717FB03208DF802004FF40054042053
:103010008DF80300ADF8004000A96D486D4DFFF735
:1030200027FB0120ADF8000000A96B48FFF720FB4B
:103030004FF4807000F019F84FF4004000F015F8DC
:103040000820ADF8000000A96448FFF711FB4FF419
:10305000804000F00AF8ADF8004000A92846FFF7CC
:1030600007FB802000F001F831BDADF8000000A999
:103070002846FFF7FDBA5A49CA7A5054C87A401C0C
:10308000C872C0B20A28A4BF0020C8727047544951
:103090008A7AC87A824201D100207047505C521C63
:1030A0008A72D2B20A2AA4BF00228A7270474C48A0
:1030B0000021418101734B4800EB0112642313810D
:1030C000491C0223137100230A299372D3721373CC
:1030D000F2DB642101876422052180F83B1000F1B6
:1030E00040010A810522CA7264220A830522CA7637
:1030F00064220A85052280F86B203B4A02603B4A25
:1031000002613B4A02623B4A02633B4A0A603B4A15
:103110000A613B4A0A623B4940F8701F3A49016123
:103120003A490162704770B52E4901EB001400EB7B
:10313000400520688047002820792BD00528B8BF9B
:10314000052002DB0A2802DA401C207170BDA07A3B
:103150006E1C20B90120A072F0B2FFF78CFF20890D
:1031600060B3E188814207D2491CE18089B2814283
:1031700024D1E81CC0B20AE0E07AF8B1217B491CF6
:103180002173C9B2814219D300202073F0B2BDE887
:10319000704070E70628A8BF052001DA10B1401E74
:1031A000207108E0A07A012805D10020A072A81C97
:1031B000C0B2FFF760FF0020E080207370BD000008
:1031C000081001400808014008200140081401408F
:1031D000001001400020014000080140001401409F
:1031E000281B00208C1900201D2F00083D2F0008EF
:1031F0005D2F0008BD2F0008C72F0008D72F00083B
:10320000E12F0008EB2F00087D2F00089D2F0008FC
:1032100010B500242046FFF786FF641C0A2CF9DB5A
:1032200010BD000010B582B001218020FFF701FA27
:10323000012000F02AF8022000F027F8032000F017
:1032400024F8042000F021F803208DF8020010205B
:103250008DF803004FF40060ADF8000000A9164C93
:103260002046FFF705FA802000F009F84FF480703F
:1032700000F005F84FF4007000F001F813BDADF850
:10328000000000A92046FFF7F3B9401E0B49C0B269
:1032900010B94FF400600CE0012808BF802008D06E
:1032A000022808BF4FF4807003D0032802D14FF4E6
:1032B0000070086070470000001C0140101C0140B5
:1032C00030B5DFF8C430DFF8D8200488984218BF42
:1032D00090420ED0B0F1804F1CBFDFF8B050A84232
:1032E00007D0DFF8AC50A8421CBFDFF8A850A842B6
:1032F00004D14FF68F752C404D882C43DFF8985041
:10330000A8421CBFDFF89450A84204D04FF6FF45F6
:103310002C40CD882C43048098428C88848518BF2B
:1033200090420C8804850AD0DFF8782090421FBFB5
:10333000DFF874209042DFF87420904201D1097ABE
:1033400001860121818230BD0029018812BF41F030
:1033500001014FF6FE72114001807047002A8289F8
:1033600014BF114322EA010181817047038A8089D9
:10337000002208400B421CBF002801221046704763
:1033800000BFC94301827047002C01400004004087
:1033900000080040000C00400010004000140040F5
:1033A0000034014000400140004401400048014019
:1033B0003548364A82B0016841F001010160416838
:1033C00011404160324A016811400160016821F4F6
:1033D00080210160416821F4FE0141604FF41F012A
:1033E0008160002101910091016841F48031016008
:1033F000016801F4003100910199491C0191009983
:1034000019B90199B1F5A06FF2D10168490C01F029
:10341000010100910099012930D11E490A6842F04A
:1034200010020A600A68920892000A600A6842F074
:1034300002020A604168416041684160416841F4AC
:1034400080614160416821F47C114160416841F430
:10345000E8114160016841F08071016001688901F3
:10346000FCD54168890889004160416841F002014A
:103470004160416801F00C010829FAD14FF0006069
:103480000549086002B07047001002400000FFF8D4
:10349000FFFFF6FE0020024008ED00E0816807E033
:1034A00002681168536889185B18C36008320260AB
:1034B000C2689142F4D04A1C8260087870472DE9B6
:1034C000FF4D00F10801009100270268520801EB4E
:1034D000C2010191B8460021029103910168490897
:1034E00000EBC101406800F0010501F1080440084B
:1034F00004EBC00630E000A8FFF7D0FF4FFA80FAD7
:103500000AE00098016808180099029049680818B4
:103510000390009808300090029803998842F0D0F8
:1035200010F801BB029047450CD1B44208BF00F02F
:103530001DF8276805B14F44606800EB07080834A0
:103540004745F2D0BAF1000F07F801BB0AD51AF1CE
:10355000010AE8D14745CED1B442CCD1304604B0BF
:10356000BDE8F08DBAF1010AD6D5F3E7012000F0ED
:1035700001B8000080B5C046C046024A11001820BC
:10358000ABBEFBE72600020019E050F8041BCB0796
:1035900044BFA9F101035918121F0023042A41F85E
:1035A000043BF9D25FEA827C0B4604D54FF0000C55
:1035B000A1F800C09B1CD10744BF0021197050F82E
:1035C000042B002AE1D1704710B50749794418311E
:1035D000064C7C44163404E00A68081D51188847DC
:1035E0000146A142F8D110BD0800000030000000E3
:1035F00099FFFFFFFC19000064010020000000009B
:10360000BFFEFFFF0200000002000000AC0100004E
:103610004F00000000000020640100007047FEE73A
:10362000FEE7FEE7FEE77047704770470148006815
:10363000704700001C10024000F00BF8002801D079
:10364000FFF7C2FF0020C046C046FFF76DF800F04C
:1036500002F80120704700F001B800000746384624
:10366000FFF788FFFBE738B504460D46284600F013
:1036700005F8A84218BF0024204632BD0149FEF7D4
:10368000BFBE00BFFC000020014880470148004742
:10369000B133000899360008C046C046C046C0464F
:1036A000FFF7CAFFFFF7BABFFFF7B9BFFFF7B8BF11
:1036B000FFF7B7BFFFF7B6BFFFF7B5BFFFF7B4BF60
:1036C000FFF7B3BFFFF736BBFFF7FEBFFFF7FEBF45
:1036D000FFF7FEBFFFF7FEBFFFF7FEBFFFF7FEBF1E
:1036E000FFF7FEBFFFF7FEBFFFF7FEBFFFF7FEBF0E
:1036F000FFF7FEBFFFF7FEBFFFF7FEBFFFF7FEBFFE
:10370000FFF7FEBFFFF7FEBFFFF7FEBFFFF7FEBFED
:10371000FFF7FEBFFFF7FEBFFFF788BFFFF7FEBF53
:10372000FFF7FEBFFFF7FEBFFFF7FEBFFFF7FEBFCD
:10373000FFF7FEBFFFF7FEBFFFF72FBBFFF7FEBF90
:10374000FFF7FEBFFFF7FEBFFFF7FEBFFFF7FEBFAD
:10375000FFF7FEBFFFF7FEBFFFF7FEBFFEF730BE6D
:10376000FEF730BEFEF730BEFFF7FEBFFFF7FEBF2D
:10377000FFF7FEBFFFF7FEBFFFF7FEBFFFF7FEBF7D
:10378000FFF7FEBFFFF7FEBFFFF7FEBFFFF7FEBF6D
:10379000FFF7FEBFFFF7FEBFFFF7FEBFFFF7FEBF5D
:1037A000FFF7FEBFFFF7FEBFFFF7FEBFFFF7FEBF4D
:1037B000FFF7FEBFFFF7FEBFE400F8FFDC00FAFFF3
:1037C0008100D1001F020401012C1A00207C1A0084
:1037D000202C1A00202C1A00202C1A00203901005D
:1037E0002020010020DC000F010203040102030479
:1037F0000607080902040608F8000B010203040684
:0738000007080900A24A04B9
:040000050800369920
:00000001FF
